{"abi":[{"type":"fallback","stateMutability":"payable"},{"type":"receive","stateMutability":"payable"},{"type":"function","name":"balances","inputs":[{"name":"","type":"address","internalType":"address"}],"outputs":[{"name":"","type":"uint256","internalType":"uint256"}],"stateMutability":"view"},{"type":"function","name":"deposit","inputs":[],"outputs":[],"stateMutability":"payable"},{"type":"function","name":"getBalance","inputs":[{"name":"user","type":"address","internalType":"address"}],"outputs":[{"name":"","type":"uint256","internalType":"uint256"}],"stateMutability":"view"},{"type":"function","name":"getContractBalance","inputs":[],"outputs":[{"name":"","type":"uint256","internalType":"uint256"}],"stateMutability":"view"},{"type":"function","name":"withdraw","inputs":[],"outputs":[],"stateMutability":"nonpayable"},{"type":"event","name":"Deposit","inputs":[{"name":"user","type":"address","indexed":true,"internalType":"address"},{"name":"amount","type":"uint256","indexed":false,"internalType":"uint256"}],"anonymous":false},{"type":"event","name":"Withdrawal","inputs":[{"name":"user","type":"address","indexed":true,"internalType":"address"},{"name":"amount","type":"uint256","indexed":false,"internalType":"uint256"}],"anonymous":false}],"bytecode":{"object":"0x6080604052348015600e575f5ffd5b5061033b8061001c5f395ff3fe608060405260043610610049575f3560e01c806327e235e31461004b5780633ccfd60b146100885780636f9fb98a1461009c578063d0e30db0146100ae578063f8b2cb4f146100b6575b005b348015610056575f5ffd5b506100766100653660046102b3565b5f6020819052908152604090205481565b60405190815260200160405180910390f35b348015610093575f5ffd5b506100496100ea565b3480156100a7575f5ffd5b5047610076565b610049610212565b3480156100c1575f5ffd5b506100766100d03660046102b3565b6001600160a01b03165f9081526020819052604090205490565b335f90815260208190526040902054806101445760405162461bcd60e51b81526020600482015260166024820152754e6f2062616c616e636520746f20776974686472617760501b60448201526064015b60405180910390fd5b6040515f90339083908381818185875af1925050503d805f8114610183576040519150601f19603f3d011682016040523d82523d5f602084013e610188565b606091505b50509050806101cb5760405162461bcd60e51b815260206004820152600f60248201526e151c985b9cd9995c8819985a5b1959608a1b604482015260640161013b565b335f818152602081815260408083209290925590518481527f7fcf532c15f0a6db0bd6d0e038bea71d30d808c7d98cb3bf7268a95bf5081b65910160405180910390a25050565b5f34116102595760405162461bcd60e51b815260206004820152601560248201527409aeae6e840c8cae0dee6d2e840e6dedaca408aa89605b1b604482015260640161013b565b335f90815260208190526040812080543492906102779084906102e0565b909155505060405134815233907fe1fffcc4923d04b559f4d29a8bfc6cda04eb5b0d3c460751c2402c5c5cc9109c9060200160405180910390a2565b5f602082840312156102c3575f5ffd5b81356001600160a01b03811681146102d9575f5ffd5b9392505050565b808201808211156102ff57634e487b7160e01b5f52601160045260245ffd5b9291505056fea26469706673582212200dcddafa27629062a544943910575ea327a2d11111913f94dfe7921945a08ffd64736f6c634300081e0033","linkReferences":{}},"methodIdentifiers":{"balances(address)":"27e235e3","deposit()":"d0e30db0","getBalance(address)":"f8b2cb4f","getContractBalance()":"6f9fb98a","withdraw()":"3ccfd60b"},"id":20}